:100000000C94C3030C94EB030C94EB030C94EB03E0
:100010000C94EB030C94EB030C94EB030C94EB03A8
:100020000C94EB030C946E0C0C9460080C94D208A6
:100030000C94EB030C94EB030C94EB030C94EB0388
:100040000C94EB030C94EB030C94EB030C94EB0378
:100050000C94EB030C94EB030C94EB030C94240C26
:100060000C94EB030C94EB030C94EB030C94EB0358
:100070000C94EB030C94EB030C94EB030C94EB0348
:100080000C94EB030C94EB030C94EB030C94EB0338
:100090000C94EB030C94EB030C94EB030C94EB0328
:1000A0000C94EB030C94EB030C94EB032D0B300B33
:1000B0001F0B230B270B510B510B510B340B380B20
:1000C0003C0B420B460B510B4C0BF0F89C8E87837C
:1000D000878E9CF8F00000FEFF0303030303070E66
:1000E000FCF80000FEFF0303030303070EFCF80007
:1000F00000FFFF00000000000000FFFF0000FEFF07
:100100008383838383C7EE7C380000F8FC0E0703EB
:100110000303070EFCF800003F7FE0C08080C0E0D2
:100120007F3FFFFF01010101010101FFFF0000FF0F
:10013000FF0C0C0C0C1C3E77E3C100007FFFC0C01D
:10014000C0C0C0E0703F1F00001F3F70E0C0C0C0D3
:10015000E0703F1F00007FFFC1C1C1C1C1E3773E16
:100160001C00001F3F70E0C0C0C0E0703F1F0000D7
:1001700000000001FFFF01000000D5F08D14A1C8B0
:1001800081CFD9F1AF200001020408102040800087
:10019000000000003E5B4F5B3E3E6B4F6B3E1C3EE3
:1001A0007C3E1C183C7E3C181C577D571C1C5E7FF7
:1001B0005E1C00183C1800FFE7C3E7FF0018241876
:1001C00000FFE7DBE7FF30483A060E2629792926AB
:1001D000407F050507407F05253F5A3CE73C5A7F95
:1001E0003E1C1C08081C1C3E7F14227F22145F5FEB
:1001F000005F5F06097F017F006689956A60606025
:10020000606094A2FFA29408047E040810207E205F
:100210001008082A1C08081C2A08081E10101010B4
:100220000C1E0C1E0C30383E3830060E3E0E0600FA
:100230000000000000005F00000007000700147FBE
:10024000147F14242A7F2A12231308646236495625
:1002500020500008070300001C2241000041221C1E
:10026000002A1C7F1C2A08083E0808008070300005
:100270000808080808000060600020100804023E1A
:100280005149453E00427F4000724949494621415B
:10029000494D331814127F1027454545393C4A49CA
:1002A0004931412111090736494949364649492909
:1002B0001E00001400000040340000000814224119
:1002C0001414141414004122140802015909063EA2
:1002D000415D594E7C1211127C7F494949363E419D
:1002E0004141227F4141413E7F494949417F0909BE
:1002F00009013E414151737F0808087F00417F4159
:10030000002040413F017F081422417F404040408F
:100310007F021C027F7F0408107F3E4141413E7FE7
:10032000090909063E4151215E7F091929462649DE
:1003300049493203017F01033F4040403F1F2040B5
:10034000201F3F4038403F631408146303047804BF
:10035000036159494D43007F414141020408102087
:10036000004141417F0402010204404040404000FE
:100370000307080020545478407F28444438384408
:10038000444428384444287F385454541800087E84
:10039000090218A4A49C787F0804047800447D40D6
:1003A000002040403D007F1028440000417F400075
:1003B0007C047804787C080404783844444438FC8D
:1003C0001824241818242418FC7C08040408485411
:1003D00054542404043F44243C4040207C1C2040CE
:1003E000201C3C4030403C44281028444C909090C5
:1003F0007C4464544C4400083641000000770000FF
:10040000004136080002010204023C2623263C1E5D
:10041000A1A161123A4040207A38545455592155CF
:1004200055794121545478412155547840205455F0
:1004300079400C1E5272123955555559395454543D
:100440005939555454580000457C410002457D42BD
:100450000001457C40F0292429F0F0282528F07C73
:10046000545545002054547C547C0A097F49324934
:100470004949323248484832324A4848303A414184
:10048000217A3A42402078009DA0A07D394444441E
:10049000393D4040403D3C24FF2424487E4943668A
:1004A0002B2FFC2F2BFF0929F620C0887E09032063
:1004B000545479410000447D413048484A32384024
:1004C00040227A007A0A0A727D0D19317D26292987
:1004D0002F28262929292630484D40203808080889
:1004E0000808080808382F10C8ACBA2F102834FAAA
:1004F00000007B000008142A142222142A140895F4
:1005000000220095AA005500AAAA55AA55AA0000E3
:1005100000FF00101010FF00141414FF001010FF53
:1005200000FF1010F010F0141414FC001414F70065
:10053000FF0000FF00FF1414F404FC141417101F34
:1005400010101F101F1414141F00101010F00000C2
:1005500000001F101010101F10101010F0100000DD
:1005600000FF101010101010101010FF10000000ED
:10057000FF140000FF00FF00001F10170000FC0424
:10058000F414141710171414F404F40000FF00F707
:1005900014141414141414F700F71414141714106A
:1005A000101F101F141414F4141010F010F0000099
:1005B0001F101F0000001F14000000FC140000F0BA
:1005C00010F01010FF10FF141414FF141010101F5F
:1005D00000000000F010FFFFFFFFFFF0F0F0F0F070
:1005E000FFFFFF0000000000FFFF0F0F0F0F0F388D
:1005F000444438447C2A2A3E147E02020606027EC7
:10060000027E0263554941633844443C04407E20E5
:100610001E2006027E020299A5E7A5991C2A492AF6
:100620001C4C7201724C304A4D4D30304878483085
:10063000BC625A463D3E494949007E0101017E2A7D
:100640002A2A2A2A44445F444440514A44404044B0
:100650004A51400000FF0103E080FF000008086BE2
:100660006B083612362436060F090F0600001818DC
:100670000000001010003040FF0101001F01011EAA
:1006800000191D1712003C3C3C3C0000000000001B
:1006900000000200090F0000030401000C0000002C
:1006A0000000000000000000000000000000080B37
:1006B000000202020100090400000102020000051C
:1006C000240010010524010101042402060524066A
:1006D00000010705810310004009040100020A001F
:1006E00000000705020240000007058302400000E9
:1006F0000403090412010002EF0201404123368085
:1007000000010102030141726475696E6F204C4C57
:10071000430041726475626F79000000000025009B
:1007200028002B002E0031000000000024002700CC
:100730002A002D00300000000000230026002900C0
:100740002C002F0004040404040304050202020226
:10075000040302020202060606060606040402025A
:100760000204040408020110408040102040804030
:1007700080080204018040201002011080102040F7
:1007800040201515CF1411241FBECFEFDAE0DEBFD5
:10079000CDBF12E0A0E0B1E0E2E7F8E302C00590CF
:1007A0000D92A033B107D9F727E0A0E3B2E001C072
:1007B0001D92AD3DB207E1F713E0C2ECD3E004C0F7
:1007C0002197FE010E943D17C13CD107C9F70E9445
:1007D000D20D0C942C1C0C940000089540918302BF
:1007E0005091840220918102309182024217530776
:1007F000B4F49091E8009570E1F39091E80092FDD7
:1008000019C08093F1008091830290918402019637
:100810008F739927892B19F48EEF8093E8008091CC
:1008200083029091840201969093840280938302C4
:1008300081E0089580E00895DF92EF92FF920F9398
:100840001F93CF93DF93D82E8A017B01E40EF51E10
:10085000EB01CE15DF0571F0D7FE03C0FE018491D8
:1008600001C088810E94EE0321968111F2CF8FEFA3
:100870009FEF01C0C801DF91CF911F910F91FF90B1
:10088000EF90DF900895615030F02091F100FC016D
:1008900020830196F8CF289884E6809386020895F5
:1008A000CF92DF92EF92FF920F931F93CF93DF933C
:1008B0006C017A018B01C0E0D0E0CE15DF0589F034
:1008C000D8016D918D01D601ED91FC910190F081DF
:1008D000E02DC6010995892B11F47E0102C02196F5
:1008E000ECCFC701DF91CF911F910F91FF90EF9057
:1008F000DF90CF900895CF93DF931F92CDB7DEB7EF
:100900006983DC01ED91FC910280F381E02D41E0EF
:1009100050E0BE016F5F7F4F09950F90DF91CF913F
:10092000089583E08093E9008091F200882319F014
:100930008AE38093E8000895FC018485958597FDFE
:100940000BC09FB7F89482E08093E9008091F20099
:100950009FBF90E0019608959FB7F89482E080933E
:10096000E9008091F2009FBF90E008953FB7F894AE
:1009700080917D0290917E02A0917F02B0918002D1
:1009800026B5A89B05C02F3F19F00196A11DB11DEA
:100990003FBFBA2FA92F982F8827820F911DA11D25
:1009A000B11DBC01CD0142E0660F771F881F991F62
:1009B0004A95D1F7089520913502309136022817D3
:1009C000390771F49091330280913402981741F005
:1009D000E0913302F0E0E85CFD4F808190E0089503
:1009E0008FEF9FEF089508951F93CF93DF93DC015E
:1009F0005C962D913C915D972115310539F481E08C
:100A000090E013969C938E9312973DC05196ED9172
:100A1000FC91529750969C915097892F80951FB7C3
:100A20005E964C915E9741FB772770F941FD60958A
:100A3000F8944081772311F0492B01C0482340836B
:100A4000E9012197F1F748E0508160FF02C0592B7E
:100A500001C058235083E9012197F1F76695415071
:100A600099F7772321F090818923808303C08081C7
:100A7000982B90831FBF5C968D919C915D970197F9
:100A8000F1F721E030E0C901DF91CF911F91089586
:100A900020913502309136022817390771F4809180
:100AA00034022091330290E0805C9F4F821B9109B9
:100AB00060E470E00E942917089580E090E00895B6
:100AC000209135023091360228173907B9F49091F8
:100AD000330280913402981789F0E0913302F0E0FC
:100AE000E85CFD4F80812091330230E02F5F3F4F63
:100AF0002F7333272093330290E008958FEF9FEFF9
:100B000008952F923F924F925F926F927F928F92B1
:100B10009F92AF92BF92CF92DF92EF92FF920F938C
:100B20001F93CF93DF93EC016A3069F42C8D888D8D
:100B3000998D38E0239F800D911D1124998F888F06
:100B40001F8A1E8AA1C06D3009F49EC03C8D5B8C4B
:100B50004A8CC88CD98C8E899F898038910584F005
:100B60002C8D422F50E08E899F89A6E02A9F800D10
:100B7000911D11249F8B8E8B2D8D211172C084C0ED
:100B8000B0E4CB16D10464F7AC01E5E03E9F400D24
:100B9000511D1124141615061CF7A32EB12CA60105
:100BA000F8E03F9F400D511D112414161506C4F6A0
:100BB00025E0629FB001112461577E4F912C40E1E6
:100BC000342EFB018490F5E09F1201C0812C760148
:100BD00028E0722E80FC02C0652C01C0642C6110DC
:100BE00009C0541007C086947A94EA0CFB1C71105B
:100BF000F1CF2EC0AC01242E242F281B231798F7E9
:100C00008701202FE02FEE19E317F8F44038510543
:100C1000C8F400341105B0F4E7E8F1E0329ED001E9
:100C2000A0781124A20D2770E20FF11D2491A8577E
:100C3000BD4F662019F0EC912E2B03C02095EC914E
:100C40002E232C930F5F1F4FDCCF4F5F5F4FD3CF0F
:100C500093948A0D9B1D6F5F7F4FF6E09F12B1CF7B
:100C60007FCF6AEF64039001659F300D11242058F7
:100C70003F4F2817390744F4CE01E881F9810190EC
:100C8000F081E02D6AE0099581E090E0DF91CF915D
:100C90001F910F91FF90EF90DF90CF90BF90AF909A
:100CA0009F908F907F906F905F904F903F902F908C
:100CB00008950895089580E090E008950E944E19E7
:100CC000CF93DF93EC0188819981009711F00E9406
:100CD000EC17198218821D821C821B821A82DF91F6
:100CE000CF9108950F931F93CF93DF931F92CDB7AA
:100CF000DEB782E0898342E450E06EEA76E080E885
:100D00000E941C040E94BE0DDC0112960D911C91E4
:100D100013970115110569F0D801ED91FC9102803E
:100D2000F381E02DBE016F5F7F4FC801099597FFEA
:100D300007C089810F90DF91CF911F910F91089586
:100D4000F80100851185E5CF0E94AD0D90E0089572
:100D5000CF93DF931F92CDB7DEB7FC0184859585D5
:100D600097FD05C02FEF3FEF358724870BC0CE01DD
:100D700001960E94830D019719F4898190E002C0C9
:100D80008FEF9FEF0F90DF91CF9108950F931F93F7
:100D9000CF93DF931F92CDB7DEB78C01FC01848522
:100DA000958597FF0EC0CE0101960E94830D019795
:100DB00019F4298130E002C02FEF3FEFF8013587A9
:100DC0002487F801848595850F90DF91CF911F913D
:100DD0000F910895AF92BF92CF92DF92EF92FF9260
:100DE0000F931F93CF93DF93DC01CD90DC9011978D
:100DF000C114D10409F442C01496CD91DC91159729
:100E00002097E1F18C0156017501BFEFAB1ABB0AC7
:100E1000F7018081082E000C990B0E94D016892BB7
:100E200099F72197CC0DDD1D8881082E000C990BB8
:100E30000E94D016892B91F4AE014F5F5F4F4E197F
:100E40005F09D80115965C934E931497CE14DF0476
:100E500050F4B701C6010E94531905C0CE15DF0535
:100E600058F32197E1CFD801ED91FC911197149699
:100E70008D919C911597E80FF91F1082DF91CF910A
:100E80001F910F91FF90EF90DF90CF90BF90AF90A8
:100E90000895CF93DF93FC0124813581232B69F0E2
:100EA000C081D181062E000C770BCE010E945C1907
:100EB000009719F08C1B9D0B02C08FEF9FEFDF9105
:100EC000CF910895CF93DF93DC01ED91FC91EB017D
:100ED000A881B981309711F01097C9F4109759F093
:100EE000EB012C813D81232B31F08C9190E0919589
:100EF0008195910914C0309781F0DC0114968D9191
:100F00009C911597892B49F0808190E008C0BD0124
:100F1000CF01DF91CF910C94671980E090E0DF91D1
:100F2000CF9108950F931F93CF93DF93EC018881A6
:100F30009981009729F02A813B812617370788F489
:100F40008B016F5F7F4F0E948418009761F0998337
:100F500088831B830A832C813D81232B11F4FC01A0
:100F6000108281E001C080E0DF91CF911F910F914D
:100F70000895EF92FF920F931F93CF93DF93EC01AD
:100F80007B018A01BA010E949207811104C0CE013F
:100F90000E94600607C01D830C83B7018881998178
:100FA0000E947019CE01DF91CF911F910F91FF9098
:100FB000EF900895CF93DF93EC01FB01861797071D
:100FC00061F0608171816115710529F0448155815D
:100FD0000E94B90702C00E946006CE01DF91CF9146
:100FE0000895FC01808191810C94EC17FC01118221
:100FF000108213821282158214826115710551F0DC
:10100000FB0101900020E9F73197AF01461B570B18
:101010000C94B9070895BF92CF92DF92EF92FF929E
:101020000F931F93CF93DF937C016B01EA0189013A
:101030002417350720F48D2FE901042F182F6CEAAF
:1010400071E0C7010E94F607D60114968D919C911C
:101050001597C817D90748F58017910708F48C0130
:10106000D601ED91FC911197E00FF11FB080108235
:101070004D915C91BA016C0F7D1F6115710561F096
:10108000FB0101900020E9F73197AF01461B570B98
:10109000C7010E94B90703C0C7010E946006D601BC
:1010A000ED91FC91E00FF11FB082C701DF91CF916C
:1010B0001F910F91FF90EF90DF90CF90BF90089518
:1010C0001F920F920FB60F9211248F939F938091CE
:1010D000E1009091E100937F9093E10083FF0FC0C6
:1010E0001092E90091E09093EB001092EC0092E3F3
:1010F0009093ED001092870298E09093F00082FFA9
:1011000020C093E09093E9009091F200992319F0A8
:101110009AE39093E80090918502992339F0909199
:101120008502915090938502992389F190918602CE
:10113000992339F0909186029150909386029923D9
:1011400041F184FF10C08091E2008E7E8160809327
:10115000E2008091E1008F7E8093E1008091310276
:101160008E7E806111C080FF16C08091E2008E7E6D
:1011700080618093E2008091E1008E7E8093E100A7
:10118000809131028E7E81608093310204C05D9A2D
:10119000CDCF289AD6CF9F918F910F900FBE0F90F1
:1011A0001F9018951F920F920FB60F921124CF9295
:1011B000DF92EF92FF920F931F932F933F934F93E2
:1011C0005F936F937F938F939F93AF93BF93EF93AF
:1011D000FF93CF93DF93CDB7DEB76C97DEBFCDBF64
:1011E0001092E9008091E80083FFEDC168E0CE0134
:1011F00045960E94430482EF8093E8008D8987FF23
:1012000005C09091E80090FFFCCF03C09EEF909343
:10121000E800982F907609F0C6C09E892F89188D16
:1012200091110CC0803829F4809132028093F10032
:1012300002C01092F1001092F10048C1422F50E01C
:10124000512B913051F4811141C14130510509F0C8
:101250003DC1809132028D7F0BC0933061F48111CA
:1012600035C14130510509F031C1809132028260AF
:10127000809332022BC1953041F48091E80080FFC9
:10128000FCCF20682093E30021C1963009F05FC0B5
:10129000EB8CFC8C1092E900109284021092830275
:1012A000123091F510928202109281020E94720611
:1012B00099E0BE016F5F7F4FDB01E92F1D92EA9538
:1012C000E9F799831A8391E09E8390EA98879AEFD1
:1012D00099872091830230918402275F3F4F3C839E
:1012E0002B838D831092E900109284021092830266
:1012F000F0928202E092810249E050E080E00E9498
:101300001C040E947206E2C0F0928202E092810206
:101310000E94BE0DDC011296ED90FC901397E11433
:10132000F10409F4C0C0D701ED91FC910480F5816E
:10133000E02DBE016B5E7F4FC7010995009719F044
:101340000CF0C4C0C7C0F701E084F184E8CF973047
:1013500009F4C0C0983021F481E08093F100B6C058
:10136000993009F0B3C0837009F0B4C0E3E1F1E053
:1013700081E021E036E39081992361F08093E900D8
:101380002093EB0091919093EC003093ED008F5FF0
:10139000873089F78EE78093EA001092EA008F8900
:1013A0008093870293C08B8D9C8D1092E9001092E0
:1013B0008402109283029093820280938102898D2D
:1013C000811156C08E899D89913A59F4813209F074
:1013D00081C047E050E064E071E080E00E941C04BE
:1013E00075C0913209F076C0833289F4888D90E01F
:1013F000982F88272F89822BA0E0B0E080930001EE
:1014000090930101A0930201B09303015FC0803269
:1014100069F48091E80082FFFCCF67E084E091E00E
:101420000E9443048BEF8093E80006C0823209F0EB
:101430004DC08F8980930B0180913002882319F071
:10144000EEEFFAE002C0E0E0F8E080910401909154
:101450000501A0910601B0910701803B9440A105D0
:10146000B10509F07BC080910B0180FF93C076C06D
:101470000E94BE0DDC0112960D911C91139701156F
:10148000110541F1D801ED91FC910190F081E02D21
:10149000BE016B5E7F4FC8010995811117C0F8012D
:1014A00000851185ECCF113009F44EC0133091F452
:1014B0008F89882309F445C0823081F440E867E0D1
:1014C00082E197E00E944E14882321F08EEF8093F2
:1014D000E80079C081E28093EB0075C0813029F487
:1014E00040E86BE086E097E0EDCF833099F70E940B
:1014F000BE0DDC011296ED90FC9013978E010F5FEC
:101500001F4F6801E114F10479F0D701ED91FC91CE
:101510000680F781E02DB801C7010995080F111D5C
:10152000F701E084F184EECFD8011C92F60101901E
:101530000020E9F73197BF016C197D0940E0C60131
:10154000C1CF60EF76E002C064EF76E0611571050F
:1015500009F2FB01449150E080E840CF0FB6F894C7
:10156000A89580916000886180936000109260006F
:101570000FBEA895EE3F2AE0F20739F08091FE0AEF
:101580009091FF0A91838083A1CF1092FF0A10925D
:10159000FE0A9CCFEE3F8AE0F80731F0808191810E
:1015A0009093FF0A8093FE0A87E797E791838083F1
:1015B0009BE088E10FB6F894A895809360000FBE79
:1015C0009093600083CF6C960FB6F894DEBF0FBE89
:1015D000CDBFDF91CF91FF91EF91BF91AF919F91DF
:1015E0008F917F916F915F914F913F912F911F91BB
:1015F0000F91FF90EF90DF90CF900F900FBE0F9064
:101600001F901895362F90E0FC01E157F94F449157
:10161000FC01ED59F84F2491FC01EC5BF84F8491EB
:10162000882309F451C04423E1F150E0FA013197D5
:10163000EF30F105B0F5EA5AFF4F0C943D17909149
:1016400080009F7707C0909180009F7D03C090919C
:101650008000977F9093800024C094B59F7702C04C
:1016600094B59F7D94BD1DC0909190009F7707C059
:10167000909190009F7D03C090919000977F9093F0
:1016800090000FC09091C0009F7703C09091C00060
:101690009F7D9093C00005C09091C200977F90936A
:1016A000C200E82FF0E0EE0FFF1FE65EF84FA591B5
:1016B000B4918FB7F894EC91311103C020952E238B
:1016C00001C02E2B2C938FBF08958F929F92AF92C3
:1016D000BF92CF92DF92EF92FF926B017C010E944A
:1016E000B6044B015C01C114D104E104F104F1F032
:1016F0000E94B604DC01CB0188199909AA09BB092B
:10170000883E9340A105B10570F321E0C21AD108CB
:10171000E108F10888EE880E83E0981EA11CB11C38
:10172000C114D104E104F10419F7DDCFFF90EF906B
:10173000DF90CF90BF90AF909F908F9008958F9241
:101740009F92AF92BF92CF92DF92EF92FF920F9350
:101750001F93CF93DF935C016B017A0180910B01A2
:10176000882309F45BC080918702882309F456C05E
:101770008091310280FF05C08091E00082608093FB
:10178000E000E70110E00AEF83E0882E9AE3992E4B
:101790002097D9F10E94AD0D81110AC0015009F4C2
:1017A0003DC061E070E080E090E00E94650BF0CF0A
:1017B000282F30E0C217D3070CF48C2F4FB7F894C2
:1017C0008092E9009091E80095FF1DC0282F30E03D
:1017D000C21BD30BF601982F915020F0819180937A
:1017E000F100FACFC20ED31E112319F09092E80037
:1017F00009C08091E80085FD06C09092E80011E0E4
:10180000209709F010E04FBFC3CF1111C3CF5D98EF
:1018100084E6809385021E141F0444F081E090E06A
:10182000F5019383828380E090E001C0C701DF91DE
:10183000CF911F910F91FF90EF90DF90CF90BF90CD
:10184000AF909F908F9008951F920F920FB60F92B6
:1018500011242F933F938F939F93AF93BF938091C6
:10186000790290917A02A0917B02B0917C02309132
:10187000780223E0230F2D3720F40196A11DB11D1E
:1018800005C026E8230F0296A11DB11D2093780202
:101890008093790290937A02A0937B02B0937C02AA
:1018A00080917D0290917E02A0917F02B091800292
:1018B0000196A11DB11D80937D0290937E02A0939D
:1018C0007F02B0938002BF91AF919F918F913F9122
:1018D0002F910F900FBE0F901F9018951F920F928F
:1018E0000FB60F9211242F933F934F935F936F93F3
:1018F0007F938F939F93AF93BF93EF93FF93E09169
:101900003502F0913602309709F451C0968DA685C4
:10191000B785858591FF04C09C91892329F447C030
:101920009C91892309F043C0A389B4899C9185893E
:10193000809589238C93868997890197F1F7608D2B
:10194000718DA685B785558538E020E0CB010197DC
:10195000F1F7822F90E095958795282F4C9145239C
:1019600009F02068315091F7868D81FD2095809196
:10197000340290E001968F73992730913302381723
:1019800049F0A0913402B0E0A85CBD4F2C93809345
:10199000340203C0868D8160868F828D938D01977E
:1019A000F1F7A389B4899C918589892B8C93FF9148
:1019B000EF91BF91AF919F918F917F916F915F91C7
:1019C0004F913F912F910F900FBE0F901F90189540
:1019D0002D9A0895BC0180E090E00C94650B8FB1C6
:1019E0002CB193B130E02095309520743327A901B4
:1019F00023E0559547952A95E1F7292F30E020956A
:101A00003095207133273595279535952795242BCB
:101A10008095807F822B08958EBD00000DB407FE57
:101A2000FDCF0895CF93DF93CDB7DEB7AE01475F0B
:101A30005F4F6F8178858D819E810E9491198D8184
:101A40009E810E94260DDF91CF910895BC010097E1
:101A500091F0FC0101900020E9F73197AF01481B9C
:101A6000590BE0918806F09189060280F381E02D00
:101A700088E896E0099480E090E00895CF93DF93A2
:101A8000FC014481558141155105C9F0611571056D
:101A9000B1F04617570708F4BA01EC018881998123
:101AA000461B570B5D834C83680F791F0E94771983
:101AB000E881F9818C819D81E80FF91F1082DF9107
:101AC000CF91089520E088E892E0B22FB111BFEFE6
:101AD000FC010024B193B193B193B1930394D1F776
:101AE0000895809188028EBDE9E8F2E081910DB4FD
:101AF00007FEFDCF8EBD86E0E838F807B9F70DB4D4
:101B000007FEFDCF0895FC0180918702811103C07B
:101B10008FEF9FEF08959FB7F89482E08093E900DC
:101B20002091F20030E01216130614F421E030E0A8
:101B30002115310559F0289884E68093860280911A
:101B4000F10080838091F200882319F09FBFC901C2
:101B500008958BE68093E800F9CF2FB7F89483E0DF
:101B60008093E9009091E800892F807295FF04C06E
:101B70009091F20080E4891B2FBF08958091D107D6
:101B800081110DC082E08093CD0784E08093CE0761
:101B90001092D0071092CF0781E08093D1078DEC8F
:101BA00097E00895CF93DF93CDB7DEB7A4970FB634
:101BB000F894DEBF0FBECDBF789484B5826084BD3B
:101BC00084B5816084BD85B5826085BD85B5816041
:101BD00085BD80916E00816080936E0010928100BF
:101BE000809181008260809381008091810081607A
:101BF000809381008091800081608093800080913B
:101C00009100826080939100809191008160809327
:101C10009100809190008160809390008091C1003C
:101C200084608093C1008091C10082608093C10074
:101C30008091C10081608093C1008091C300816068
:101C40008093C3008091C00082608093C000809127
:101C5000C20081608093C20080917A00846080938A
:101C60007A0080917A00826080937A0080917A0075
:101C7000816080937A0080917A00806880937A00F6
:101C80001092870210923202109231028091D70096
:101C900081608093D70080EA8093D80089B5806105
:101CA00089BD89B5826089BD09B400FEFDCF61E0C0
:101CB00070E080E090E00E94650B8091D8008F7CFE
:101CC00080618093D8008091E000807F8093E00065
:101CD0008091E1008E7E8093E1008DE08093E200B0
:101CE000559A209AEEEFFFE7859194918B3F9C4D9A
:101CF00019F481E08093300281EC80937C0085B1FF
:101D0000806F85B9249884B1866E84B95E9A5F9895
:101D10008AB1806D8AB9769A6E9881B3806F81BBE3
:101D2000899880B38D7080BB80E58CBD81E08DBDCE
:101D300085E090E00E94EA0C5F9A85E090E00E94C6
:101D4000EA0C5E985C980AE711E0EDE0FE2EF00EDA
:101D5000F80184910E940C0D0F5F1F4FF012F8CF15
:101D60005C9A81E88093640081E08093650000E0E4
:101D700014E080E00E940C0D01501109D1F70E947F
:101D8000EF0C87FF27C05C9885EA0E940C0D5C9AD7
:101D90002E982F982D988091640080628093640023
:101DA00083B7817F83BF83B7816083BF889583B703
:101DB0008E7F83BFF5CF2D980E94EF0C84788438F6
:101DC00071F00E94EF0C8471843131F188EC90E065
:101DD0000E94EA0C0E94EF0C82FDEDCF3AC00E94F7
:101DE000E80C88EC90E00E94EA0C2F9882E090E0EA
:101DF0000E94DC168F3F29F06FEF82E090E00E9496
:101E0000E41684EF91E00E94EA0C2F9A0E94EF0CF6
:101E100084788438D9F3D5CF0E94E80C88EC90E020
:101E20000E94EA0C2E9882E090E00E94DC16882343
:101E300029F060E082E090E00E94E41684EF91E0F7
:101E40000E94EA0C2E9A0E94EF0C84718431D9F31F
:101E5000BDCF0E94E80C82E090E00E94DC1688234F
:101E600031F03E9A3F9A81E08093370204C010928D
:101E700037023E983F982E980EEE1FEF78E0A72E7F
:101E8000B12C0E94EF0C86FF04C02E9A2F9A2D9A37
:101E90008CC00C3FFFEF1F0719F42E9A2F9805C036
:101EA0000831110511F42F9A2D980E94620D003F00
:101EB0002FEF120784F40E94710D8BE190E00E94D5
:101EC000EA0C003F3FEF130709F059C08AEF90E09A
:101ED0000E94EA0C54C0980117FF04C02227332740
:101EE000201B310B27703327C80117FD079663E0CD
:101EF000959587956A95E1F717FF05C00197A501AC
:101F0000421B530B9A017C01F694FE2CEE24F794AD
:101F1000E79440E050E03501621A730AB701605857
:101F20007F4F4B018F3F7FEF970744F40196485A4C
:101F30005F4F7401403B510589F7BDCFD701A45EC7
:101F4000BC4F60E070E08F3FEFEF9E0709F4E1C205
:101F5000FB01E40FF51FE653FF4FE4916D01C81834
:101F6000D908CE0CDF1CF0E01F01022E01C0220CAC
:101F70000A94EAF7F601508025282082CAC20F5F32
:101F80001F4F0931110509F07CCF8CEB92E00E94C4
:101F9000EA0C0E94E80CE091DC06F091DD0601906D
:101FA000F081E02D8CED96E0099582E390E00E94AF
:101FB000EA0C0E94EF0C8111F8CF88EC8093E306C5
:101FC000109211071092100710920F0710920E072F
:101FD00010920D0710920C078DE991E09093130772
:101FE000809312078091020798EF980F943048F081
:101FF00022EF280F243028F026EE280F233008F097
:1020000060C02DEB30E030930D0720930C072BE9D7
:1020100031E030930F0720930E072CE231E030932C
:10202000110720931007943058F092EF980F9430D6
:1020300038F08A51833008F429C4A0E0B0E028C405
:10204000A8E6B0E0E8E6F0E0808181608C938091C2
:10205000020798EF980F943058F022EF280F2430A1
:1020600038F026EE280F233018F020E030E002C0D0
:102070002BE630E030930A0720930907943010F4E0
:102080009CEF09C08E3071F08F3071F0803171F0AB
:10209000813171F09AEE980F81E001C0880F9A9516
:1020A000EAF707C088E005C082E003C084E001C011
:1020B00081E080930B07809112079091130701979D
:1020C000F1F78091100790911107892B49F1E09168
:1020D0003502F091360226E0E63FF20709F130972B
:1020E00039F0A389B4899C918589809589238C9343
:1020F000809114078E7F80931407109234021092FF
:10210000330286EF96E09093360280933502E09199
:102110000907F0910A07908180910B07892B808332
:1021200084E090E09093EF068093EE0689E090E0E3
:102130009093F1068093F00641E5842E41E0942EC1
:1021400008E817E038EBA32E31E0B32E26E0522E3C
:1021500088E896E00E949C04892B09F499C088E8DD
:1021600096E00E94A806F82E682F88E896E00E9464
:102170007B04909187073AE0F31681F19695969546
:1021800096959770F9821A82599EC001112488523F
:10219000994F6C0143E8C40ED11CF601E080F18038
:1021A000FFEFEF1AFF0A3C012FE7620E711CB70127
:1021B000C3010E949207882359F2F30120813181E3
:1021C000F60180819181BE016F5F7F4F820F931F67
:1021D0000E947019F601F182E082BACF892F8695AC
:1021E00086958695877031E0380F3770232F220F40
:1021F000220F220F977C922B492F4770282F277090
:10220000977C341309C0322F330F330F330F292F2C
:10221000232B209387072AC0220F220F220F292B5E
:10222000209387074091550750915607452B79F029
:102230001F923F931F928F939F928F921F930F93A2
:102240000E94120D0FB6F894DEBF0FBECDBF809175
:102250008707982F9695969596959F5F9770990FFB
:10226000990F990F877C892B809387078091870727
:102270008695869586958770589EC001112440E00A
:1022800050E06CEA71E0895A984F0E94B90760CF1C
:1022900080918707E82FE7708695869586958770E9
:1022A000E81709F42EC18091550790915607892BA4
:1022B000C1F036E0E39FF0011124E95AF84F818123
:1022C0008F9380818F9389E791E09F938F931F93E2
:1022D0000F930E94120D0F900F900F900F900F9080
:1022E0000F9080918707877046E0849FC00111247A
:1022F000BC01695A784F7B0160E2C7010E9449071F
:102300009C0140E050E0B701CE014F960E940B08BF
:102310006BA17CA16F5F7F4FC7010E943E0D1A8E9B
:10232000198E1C8E1B8E1E8E1D8EB701CE014996F6
:102330000E94DA078BA19CA1892B09F4ADC01092F1
:102340001C0781E080931B07BE01615E7F4F85E122
:1023500097E00E94DA0710921B07ED8CFE8CE114C7
:10236000F10419F48FEF9FEF17C0A98DBA8DAE0D50
:10237000BF1D7C901C92C98CDA8C65E270E0C601AE
:102380000E948619F601EE0DFF1D7082009751F331
:10239000298D3A8D821B930B7C0172E0E70EF11CB4
:1023A000970140E050E0BE01675E7F4FCE0143964B
:1023B0000E940B08CE0143960E94EA062D8D3E8DA9
:1023C000A701BE01675E7F4FCE010D960E940B08EC
:1023D000CE010D960E94EA0696E0F92ECF88D88CA1
:1023E00092E0C916D10428F089899A89892B09F0CD
:1023F000B5C1CE010D960E94F107CE0143960E9411
:10240000F107F0901B07F11047C08091550790919C
:102410005607892B09F098C060E971E0CE0101965A
:102420000E94F607BE016F5F7F4F85E197E00E9433
:102430006207892B09F4D5C0CE0101960E94F107ED
:10244000FF2009F4DFC080912507909126070097AF
:1024500009F4D0C00E9494167B0180912B079091C3
:102460002C07009709F4CAC00E949416F092EF0658
:10247000E092EE067093F1066093F00686E092E03B
:102480000E94260D6AE088E896E00E947B04109284
:102490001C0781E080931B0780918707982F977016
:1024A0008695869586958770981719F1209155071E
:1024B00030915607232BA1F081E0890F87701F927E
:1024C0008F931F929F9389E092E09F938F931F9326
:1024D0000F930E94120D0FB6F894DEBF0FBECDBF52
:1024E0008091870791E0980F9770887F892B809360
:1024F0008707CE0149960E94F107CE014F960E94B0
:10250000F10780E090E0892B09F420CE0E940000C2
:1025100019CE2115310581F0FB01E40FF51FE653BB
:10252000FF4FE491F0E0062C02C0F595E7950A9480
:10253000E2F7DC90ED29EC936F5F7F4F11966835E1
:10254000710509F000CDF2CC809116078F93809130
:1025500015078F9382EA91E09F938F931F930F93B8
:102560000E94120D80911C071F928F938DEA91E0BB
:102570009F938F931F930F930E94120D0FB6F894A1
:10258000DEBF0FBECDBFE12C86E0D82E80911C07A8
:10259000E81608F041CF8E2D90E0D89EF001D99E2C
:1025A000F00D1124EB5DF84F208131813F932F9383
:1025B000FC01E052F94F85AD282F082E000C330B9B
:1025C0003F938F931F92EF92BF92AF921F930F93FF
:1025D0000E94120DE3940FB6F894DEBF0FBECDBF7C
:1025E000D5CFFF24F39480911C07823009F424CFC7
:1025F000F12C22CF60E070E0CB012ECF60E070E0E4
:10260000CB0134CF61ED71E0CE0101960E94F60757
:10261000BE016F5F7F4F85E197E00E946207892BC3
:1026200031F4FF24F39480911C078111F12CCE0129
:1026300001960E94F107FF2059F00E94620D10924E
:10264000F1061092F0061092EF061092EE0616CFE9
:102650006FED71E0CE0101960E94F607BE016F5F3B
:102660007F4F85E197E00E946207892B31F4FF24B8
:10267000F39480911C078111F12CCE0101960E94E8
:10268000F107FF2019F00E94710DF8CE6FEE71E096
:10269000CE0101960E94F607BE016F5F7F4F85E174
:1026A00097E00E946207892B39F4FF24F39480910C
:1026B0001C07813009F0F12CCE0101960E94F10730
:1026C000FF2069F04091290750912A076091250762
:1026D0007091260788ED96E00E945004CFCE6DEFF2
:1026E00071E0CE0101960E94F607BE016F5F7F4F39
:1026F00085E197E00E946207892B39F4FF24F39467
:1027000080911C07813009F0F12CCE0101960E94C6
:10271000F107FF2001F163E072E0CE0101960E9413
:10272000F607BE016F5F7F4F85E297E00E94620768
:102730007C01CE0101960E94F107EF2829F4109246
:102740005607109255079ACE81E090E09093560775
:102750008093550793CE85E092E092CE65E2CE015C
:1027600043960E944907BC016F5F7F4F6C157D0542
:1027700050F42B893C892115310529F0F901E60F28
:10278000F71FE08001C0E12CCE0143960E943E0D70
:1027900060E2CE010D960E9449073C016CEA71E0AF
:1027A000CE0107960E94F607C30101966C0177FCE3
:1027B00004C08F89988D029740F4BE01635F7F4FFC
:1027C000CE0107960E94DA0739C0960140E050E03A
:1027D000BE01635F7F4FCE0101960E940B088F817F
:1027E00098850097A9F069817A816115710571F06A
:1027F00049855A852D813E814217530738F00E9442
:1028000070198D819E819C878B8712C00E94EC1766
:1028100089819A8198878F838B819C819A87898708
:102820008D819E819C878B871A8219821C821B82D4
:102830001E821D82CE0101960E94F107B601CE01D3
:102840000D960E943E0DCE0107960E94EA06209149
:102850001C0730E0F901E052F94FE5AEF29EC001ED
:10286000F39E900D1124BE01695F7F4F8B5D984FE1
:102870000E94DA0780911C078F5F80931C071092DB
:102880001B07CE0107960E94F107A8CDA8E6B0E08D
:10289000833008F4D7CBE0E0F0E0D6CBCF92DF92E4
:1028A000EF92FF920F931F93CF93DF931F92CDB7B9
:1028B000DEB7182F062FE42E862F880F8E5F9983A0
:1028C0000E94EE0383E00E94EE03F12EC12E998157
:1028D000D92E8C2D8F19801798F4F601E7FE02C0CF
:1028E000849101C080810E94EE03182F80E00E9435
:1028F000EE038123FFEFCF1ADF0A8111EACF01C077
:1029000081E00F90DF91CF911F910F91FF90EF9099
:10291000DF90CF9008950F931F93CF93DF938C0197
:1029200081E090E00E94DC1680FF31C08AE090E0F8
:102930000E94DC169FEF980F9E3F48F522E330E09F
:10294000D80157963C932E93569728E330E059963A
:102950003C932E935897CBE0D0E0D801ED91FC91B9
:102960000190F081E02D682FC8010995CE010E94E9
:10297000DC162196C131D10581F70E94710D88EED8
:1029800093E0DF91CF911F910F910C94EA0CDF91AE
:10299000CF911F910F91089504970C948B14CF93AE
:1029A000DF9387E597E0892B29F485E297E0892B6F
:1029B00071F419C0C0E0D0E0CE018F57984F0E944B
:1029C000F1072697C03D2FEFD207B1F7EECFC0E059
:1029D000D0E0CE01815B984F0E94F1072697C03D61
:1029E0008FEFD807B1F785E197E00E94F10783E404
:1029F00091E09093F7068093F606809135029091CE
:102A00003602865F964071F4E0910907F0910A075B
:102A1000908180910B0780958923808310923602E4
:102A200010923502DF91CF910895CF93DF931092EA
:102A30008B0610928A0688EE93E0A0E0B0E08093C7
:102A40008C0690938D06A0938E06B0938F062DE191
:102A500031E030938906209388062FEF3FEF3093C3
:102A60009506209394061092DB061092DA061092D7
:102A7000E1061092E20640E14093E3063093E0065F
:102A80002093DF061092E8061092E9061092EA06FB
:102A90001092EB061092EC062FE231E03093D9064B
:102AA0002093D8062DE331E03093DD062093DC0639
:102AB0001092EF061092EE061092F1061092F006B8
:102AC00061E06093F2061092F3066093F4061092B0
:102AD000F5061092F9061092F8068093FA06909384
:102AE000FB06A093FC06B093FD0683E491E090936F
:102AF000F7068093F60610920D0710920C071092BD
:102B00000F0710920E0710921107109210071092E3
:102B1000130710921207809114078E7F8D7F809388
:102B200014078695817068278BE00E94020BEEE601
:102B3000F7E02491EFE4F7E08491882399F090E0A6
:102B4000880F991FFC01E85DF84FA591B491FC0135
:102B5000E65EF84F859194918FB7F894EC91E22B53
:102B6000EC938FBFEEE6F7E0E491E0930607EFE425
:102B7000F7E0E491F0E0EE0FFF1FE65EF84F85917D
:102B800094919093080780930707EDE6F7E024916E
:102B9000EEE4F7E084918823C1F090E0880F991F5C
:102BA000FC01E85DF84FC591D491FC01E65EF84F59
:102BB000A591B4919FB7F8948881E22FE0958E2378
:102BC00088838C91E823EC939FBF8091140781FD4B
:102BD00004C061E08AE00E94020B8AE08093020751
:102BE000EDE6F7E0E491E0930307EEE4F7E0E4912B
:102BF000F0E0EE0FFF1FEA5CF84F859194919093FF
:102C00000507809304076CEA71E085E197E00E9474
:102C1000F60710921B0710921C0788E0EDE1F7E021
:102C2000DF011D928A95E9F76CEA71E085E297E091
:102C30000E94F6076CEA71E08BE297E00E94F607CB
:102C40006CEA71E081E397E00E94F6076CEA71E0BC
:102C500087E397E00E94F6076CEA71E08DE397E066
:102C60000E94F6076CEA71E083E497E00E94F607A1
:102C70006CEA71E089E497E00E94F6076CEA71E083
:102C80008FE497E00E94F6071092560710925507BE
:102C90006CEA71E087E597E00E94F6076CEA71E064
:102CA0008DE597E00E94F6076CEA71E083E697E015
:102CB0000E94F6076CEA71E089E697E00E94F60749
:102CC0006CEA71E08FE697E00E94F6076CEA71E02B
:102CD00085E797E00E94F6076CEA71E08BE797E0E2
:102CE0000E94F6076CEA71E081E897E00E94F6071F
:102CF00080918707807C886080938707109288077F
:102D00008CE78093C8078CE58093C9078DE2809398
:102D1000CA078FE28093CB078091CC078C7F80938A
:102D2000CC07DF91CF9108951F93FC019927882745
:102D3000BC01E89411911032E9F3193010F01E3003
:102D4000C8F31B3251F01D3249F4689406C00E944A
:102D5000BB16610F711D811D911D119110531A3009
:102D6000B0F33EF490958095709561957F4F8F4FAD
:102D70009F4F1F910895592F482F372F262F660FE9
:102D8000771F881F991F660F771F881F991F620F73
:102D9000731F841F951F660F771F881F991F089543
:102DA00091110C94D916803219F089508550C8F7CA
:102DB0000895992788270895F999FECF92BD81BD7E
:102DC000F89A992780B50895262FF999FECF1FBA52
:102DD00092BD81BD20BD0FB6F894FA9AF99A0FBE44
:102DE000019608952F923F924F925F926F927F9239
:102DF0008F929F92AF92BF92CF92DF92EF92FF920B
:102E00000F931F93CF93DF93CDB7DEB7CA1BDB0BB6
:102E10000FB6F894DEBF0FBECDBF09942A8839885B
:102E200048885F846E847D848C849B84AA84B98462
:102E3000C884DF80EE80FD800C811B81AA81B9816E
:102E4000CE0FD11D0FB6F894DEBF0FBECDBFED0182
:102E5000089597FB072E16F4009407D077FD09D04C
:102E60000E94431707FC05D03EF4909581959F4F33
:102E70000895709561957F4F0895EE0FFF1F05909F
:102E8000F491E02D0994AA1BBB1B51E107C0AA1FB6
:102E9000BB1FA617B70710F0A61BB70B881F991FFB
:102EA0005A95A9F780959095BC01CD010895CF93CF
:102EB000DF938230910510F482E090E0E091DB072F
:102EC000F091DC0720E030E0C0E0D0E0309711F175
:102ED0004081518148175907C0F04817590761F4DC
:102EE00082819381209719F09B838A832BC09093D2
:102EF000DC078093DB0726C02115310519F0421746
:102F0000530718F49A01BE01DF01EF010280F3813B
:102F1000E02DDCCF2115310509F1281B390B2430B8
:102F2000310590F412968D919C911397611571055E
:102F300021F0FB019383828304C09093DC0780938C
:102F4000DB07FD01329644C0FD01E20FF31F8193C0
:102F50009193225031092D933C933AC02091D90787
:102F60003091DA07232B41F420910E0130910F01AB
:102F70003093DA072093D90720910C0130910D018D
:102F80002115310541F42DB73EB740911001509104
:102F90001101241B350BE091D907F091DA07E217F4
:102FA000F307A0F42E1B3F0B2817390778F0AC016C
:102FB0004E5F5F4F2417350748F04E0F5F1F509349
:102FC000DA074093D9078193919302C0E0E0F0E0E3
:102FD000CF01DF91CF9108950F931F93CF93DF938C
:102FE000009709F48CC0FC01329713821282009181
:102FF000DB071091DC070115110581F42081318177
:10300000820F931F2091D9073091DA0728173907CB
:1030100079F5F093DA07E093D90771C0D80140E061
:1030200050E0AE17BF0750F412962D913C911397C4
:10303000AD012115310509F1D901F3CF9D01DA0167
:103040003383228360817181860F971F82179307D4
:1030500069F4EC0128813981260F371F2E5F3F4F1D
:10306000318320838A819B8193838283452B29F43A
:10307000F093DC07E093DB0742C01396FC93EE93DA
:103080001297ED01499159919E01240F351FE217C6
:10309000F30771F480819181840F951F0296119638
:1030A0009C938E938281938113969C938E93129717
:1030B000E0E0F0E0D80112968D919C911397009773
:1030C00019F0F8018C01F6CF8D919C9198012E5F3B
:1030D0003F4F820F931F2091D9073091DA072817AD
:1030E000390769F4309729F41092DC071092DB0756
:1030F00002C0138212821093DA070093D907DF917E
:10310000CF911F910F910895A0E0B0E0EAE8F8E1B7
:103110000C94F616EC01009721F4CB010E9457178E
:10312000B8C0FC01E60FF71F9C0122503109E217DD
:10313000F30708F4ACC0D9010D911C911197061743
:103140001707B0F00530110508F49FC0C8010497B7
:103150008617970708F499C002501109061B170B30
:10316000019311936D937C93CF010E94EC178DC056
:103170005B01A01AB10A4C01800E911EA091DB07E1
:10318000B091DC0740E050E0E12CF12C109709F4FD
:103190004AC0A815B905D1F56D907C9011976301CF
:1031A00082E0C80ED11CCA14DB0480F1A3014A19C5
:1031B0005B096A0182E0C80ED11C1296BC9012977E
:1031C0001396AC91B5E0CB16D10440F0B282A38344
:1031D00051834083D9016D937C930AC00E5F1F4FCA
:1031E000C301800F911FF90191838083EB2DFA2F8A
:1031F000E114F10431F0D7011396FC93EE9312978A
:1032000044C0F093DC07E093DB073FC08D919C91B5
:1032100011974817590708F4AC017D0112960D90DB
:10322000BC91A02DB3CF8091D9079091DA07881572
:103230009905E1F446175707C8F480910C01909165
:103240000D01009741F48DB79EB740911001509148
:103250001101841B950BE817F907C8F4F093DA07FE
:10326000E093D907F901718360830FC0CB010E94FD
:1032700057177C01009759F0A801BE010E9453190D
:10328000CE010E94EC17C70104C0CE0102C080E04D
:1032900090E0CDB7DEB7EEE00C94121781E090E03D
:1032A000F8940C942C1CFB01DC0102C001900D92DF
:1032B00041505040D8F70895FC018191861721F0C4
:1032C0008823D9F7992708953197CF010895FB01F5
:1032D000DC018D91019080190110D9F3990B0895AB
:1032E000FB01DC0101900D920020E1F70895FB0144
:1032F000DC014150504048F001900D920020C9F788
:1033000001C01D9241505040E0F70895FC0181E05A
:1033100090E00190061609F4CF010020D1F7019743
:103320000895AEE0B0E0E7E9F9E10C9400178C01F4
:1033300086E08C831A8309838FEF9FE79E838D83BA
:10334000CE0101960E94AE192F813885F801E20F57
:10335000F31F10822E96E4E00C941C17ACE0B0E052
:10336000E4EBF9E10C94F2167C016B018A01FC019B
:1033700017821682838181FFBDC1CE0101964C0167
:10338000F7019381F60193FD859193FF81916F0180
:10339000882309F4ABC1853239F493FD859193FFFD
:1033A00081916F01853229F4B70190E00E94961B4C
:1033B000E7CF512C312C20E02032A0F48B3269F081
:1033C00030F4803259F0833269F420612CC08D32A0
:1033D00039F0803339F4216026C02260246023C094
:1033E000286021C027FD27C030ED380F3A3078F42F
:1033F00026FF06C0FAE05F9E300D1124532E13C045
:103400008AE0389E300D1124332E20620CC08E329B
:1034100021F426FD6BC1206406C08C3611F42068AF
:1034200002C0883641F4F60193FD859193FF8191A6
:103430006F018111C1CF982F9F7D9554933028F44F
:103440000C5F1F4FFFE3F9830DC0833631F08337E4
:1034500071F0833509F05BC022C0F8018081898357
:103460000E5F1F4F44244394512C540115C0380162
:10347000F2E06F0E711CF801A080B18026FF03C03E
:10348000652D70E002C06FEF7FEFC5012C870E94B1
:103490008B1B2C0183012C852F77222E17C038011E
:1034A000F2E06F0E711CF801A080B18026FF03C00E
:1034B000652D70E002C06FEF7FEFC5012C870E9481
:1034C000801B2C012C852068222E830123FC1BC02D
:1034D000832D90E048165906B0F4B70180E290E0E1
:1034E0000E94961B3A94F4CFF50127FC859127FEA4
:1034F00081915F01B70190E00E94961B31103A94D0
:10350000F1E04F1A51084114510471F7E5C08436B7
:1035100011F0893639F5F80127FF07C06081718104
:10352000828193810C5F1F4F08C060817181072EDB
:10353000000C880B990B0E5F1F4F2F76722E97FF92
:1035400009C090958095709561957F4F8F4F9F4FE3
:103550002068722E2AE030E0A4010E94CE1BA82E23
:10356000A81844C0853729F42F7EB22E2AE030E017
:1035700025C0F22FF97FBF2E8F36C1F018F48835A1
:1035800079F0B4C0803719F0883721F0AFC02F2F01
:103590002061B22EB4FE0DC08B2D8460B82E09C000
:1035A00024FF0AC09F2F9660B92E06C028E030E0A5
:1035B00005C020E130E002C020E132E0F801B7FEB2
:1035C00007C060817181828193810C5F1F4F06C0AB
:1035D0006081718180E090E00E5F1F4FA4010E9426
:1035E000CE1BA82EA818FB2DFF777F2E76FE0BC0D2
:1035F000372D3E7FA51450F474FE0AC072FC08C03B
:10360000372D3E7E05C0BA2C372D03C0BA2C01C021
:10361000B52C34FF0DC0FE01EA0DF11D8081803311
:1036200011F4397E09C032FF06C0B394B39404C0CC
:10363000832F867809F0B39433FD13C030FF06C0A2
:103640005A2CB31418F4530C5B18B32CB31468F44D
:10365000B70180E290E03C870E94961BB3943C85C2
:10366000F5CFB31410F43B1801C0312C34FF12C055
:10367000B70180E390E03C870E94961B3C8532FFB7
:1036800017C031FD03C088E790E002C088E590E0F4
:10369000B7010CC0832F867859F031FF02C08BE24E
:1036A00001C080E237FD8DE2B70190E00E94961BD9
:1036B000A51438F4B70180E390E00E94961B5A9459
:1036C000F7CFAA94F401EA0DF11D8081B70190E0D3
:1036D0000E94961BA110F5CF332009F451CEB701FB
:1036E00080E290E00E94961B3A94F6CFF701868123
:1036F000978102C08FEF9FEF2C96E2E10C940E179A
:10370000FC010590615070400110D8F780959095AC
:103710008E0F9F1F0895FC016150704001900110B1
:10372000D8F7809590958E0F9F1F08950F931F9344
:10373000CF93DF93FB01238121FD03C08FEF9FEF28
:1037400028C022FF16C04681578124813581421747
:10375000530744F4A081B1819D012F5F3F4F318316
:1037600020838C93268137812F5F3F4F37832683B9
:1037700010C0EB01092F182F0084F185E02D099569
:10378000892BE1F68E819F8101969F838E83812F05
:10379000902FDF91CF911F910F910895FA01AA27E1
:1037A000283051F1203181F1E8946F936E7F6E5F84
:1037B0007F4F8F4F9F4FAF4FB1E03ED0B4E03CD032
:1037C000670F781F891F9A1FA11D680F791F8A1F15
:1037D000911DA11D6A0F711D811D911DA11D20D07C
:1037E00009F468943F912AE0269F11243019305D36
:1037F0003193DEF6CF010895462F4770405D419327
:10380000B3E00FD0C9F7F6CF462F4F70405D4A3373
:1038100018F0495D31FD4052419302D0A9F7EACF3B
:10382000B4E0A6959795879577956795BA95C9F76A
:1038300000976105710508959B01AC010A2E06945D
:103840005795479537952795BA95C9F7620F731F16
:10385000841F951FA01D089513E0C2ECD3E004C09F
:10386000FE010E943D172196C33CD107C9F7F89489
:02387000FFCF88
:10387200FFFFFFFF00E10000000000000000DD0785
:10388200800000C18081000000000000007B049FD6
:103892000BA40691049C04A806C606000000008141
:1038A2000550045B065A068B14FCFF0000CC140082
:1038B200000000F40450045B06F30448056005DBD5
:1038C20004696E6372656D656E742072782062752C
:1038D200666665722077726974652069647820254E
:1038E20064202D3E2025640A00696E746572707230
:1038F200657420627566666572202D25732D0A0037
:1039020061726475626F792E736574437572736F39
:103912007200636D643A202D25732D0A00236172B3
:1039220067733A2025640A00233A202564206D6FCC
:10393200643A2025632076616C3A202D25732D0A86
:103942000061726475626F792E636C6561720061E9
:10395200726475626F792E646973706C617900614B
:10396200726475626F792E7072696E74006465623A
:1039720075670030004E4F4B00696E6372656D656E
:103982006E74207278206275666665722072656157
:103992006420696478202564202D3E2025640A0075
:00000001FF
